{
  "contractName": "Adddoc",
  "abi": [
    {
      "constant": false,
      "inputs": [
        {
          "internalType": "string",
          "name": "_memeHash",
          "type": "string"
        }
      ],
      "name": "set",
      "outputs": [],
      "payable": false,
      "stateMutability": "nonpayable",
      "type": "function"
    },
    {
      "constant": true,
      "inputs": [],
      "name": "get",
      "outputs": [
        {
          "internalType": "string",
          "name": "",
          "type": "string"
        }
      ],
      "payable": false,
      "stateMutability": "view",
      "type": "function"
    },
    {
      "constant": false,
      "inputs": [
        {
          "internalType": "address",
          "name": "UserAddress",
          "type": "address"
        },
        {
          "internalType": "string",
          "name": "FullName",
          "type": "string"
        },
        {
          "internalType": "string",
          "name": "EmailID",
          "type": "string"
        },
        {
          "internalType": "string",
          "name": "MobileNo",
          "type": "string"
        }
      ],
      "name": "AddUser",
      "outputs": [],
      "payable": false,
      "stateMutability": "nonpayable",
      "type": "function"
    },
    {
      "constant": false,
      "inputs": [
        {
          "internalType": "address",
          "name": "UserAddress",
          "type": "address"
        },
        {
          "internalType": "string",
          "name": "bonafide",
          "type": "string"
        },
        {
          "internalType": "string",
          "name": "rector",
          "type": "string"
        },
        {
          "internalType": "string",
          "name": "scholor",
          "type": "string"
        },
        {
          "internalType": "string",
          "name": "academics",
          "type": "string"
        },
        {
          "internalType": "string",
          "name": "dochash",
          "type": "string"
        }
      ],
      "name": "Adduserdata",
      "outputs": [],
      "payable": false,
      "stateMutability": "nonpayable",
      "type": "function"
    },
    {
      "constant": true,
      "inputs": [
        {
          "internalType": "address",
          "name": "UserAddress",
          "type": "address"
        },
        {
          "internalType": "uint256",
          "name": "RequestIndex",
          "type": "uint256"
        }
      ],
      "name": "viewUser",
      "outputs": [
        {
          "internalType": "uint256",
          "name": "",
          "type": "uint256"
        },
        {
          "internalType": "string",
          "name": "",
          "type": "string"
        },
        {
          "internalType": "uint256",
          "name": "",
          "type": "uint256"
        },
        {
          "internalType": "string",
          "name": "",
          "type": "string"
        },
        {
          "internalType": "uint256",
          "name": "",
          "type": "uint256"
        },
        {
          "internalType": "string",
          "name": "",
          "type": "string"
        },
        {
          "internalType": "uint256",
          "name": "",
          "type": "uint256"
        },
        {
          "internalType": "string",
          "name": "",
          "type": "string"
        },
        {
          "internalType": "uint256",
          "name": "",
          "type": "uint256"
        },
        {
          "internalType": "string",
          "name": "",
          "type": "string"
        }
      ],
      "payable": false,
      "stateMutability": "view",
      "type": "function"
    },
    {
      "constant": true,
      "inputs": [
        {
          "internalType": "address",
          "name": "ins",
          "type": "address"
        },
        {
          "internalType": "uint256",
          "name": "UserIndex",
          "type": "uint256"
        }
      ],
      "name": "getUser",
      "outputs": [
        {
          "internalType": "string",
          "name": "",
          "type": "string"
        },
        {
          "internalType": "string",
          "name": "",
          "type": "string"
        },
        {
          "internalType": "string",
          "name": "",
          "type": "string"
        }
      ],
      "payable": false,
      "stateMutability": "view",
      "type": "function"
    },
    {
      "constant": false,
      "inputs": [
        {
          "internalType": "address",
          "name": "UserAddress",
          "type": "address"
        },
        {
          "internalType": "string",
          "name": "stuname",
          "type": "string"
        },
        {
          "internalType": "uint256",
          "name": "bonafide",
          "type": "uint256"
        },
        {
          "internalType": "uint256",
          "name": "rector",
          "type": "uint256"
        },
        {
          "internalType": "uint256",
          "name": "scholor",
          "type": "uint256"
        },
        {
          "internalType": "uint256",
          "name": "academics",
          "type": "uint256"
        },
        {
          "internalType": "uint256",
          "name": "dochash",
          "type": "uint256"
        },
        {
          "internalType": "uint256",
          "name": "status",
          "type": "uint256"
        }
      ],
      "name": "AddRequest",
      "outputs": [],
      "payable": false,
      "stateMutability": "nonpayable",
      "type": "function"
    },
    {
      "constant": true,
      "inputs": [
        {
          "internalType": "address",
          "name": "UserAddress",
          "type": "address"
        }
      ],
      "name": "ViewRequestLength",
      "outputs": [
        {
          "internalType": "uint256",
          "name": "",
          "type": "uint256"
        }
      ],
      "payable": false,
      "stateMutability": "view",
      "type": "function"
    },
    {
      "constant": true,
      "inputs": [
        {
          "internalType": "address",
          "name": "UserAddress",
          "type": "address"
        },
        {
          "internalType": "uint256",
          "name": "RequestIndex",
          "type": "uint256"
        }
      ],
      "name": "ViewRequestHeader",
      "outputs": [
        {
          "internalType": "string",
          "name": "stuname",
          "type": "string"
        },
        {
          "internalType": "uint256",
          "name": "status",
          "type": "uint256"
        }
      ],
      "payable": false,
      "stateMutability": "view",
      "type": "function"
    },
    {
      "constant": true,
      "inputs": [
        {
          "internalType": "address",
          "name": "UserAddress",
          "type": "address"
        },
        {
          "internalType": "uint256",
          "name": "RequestIndex",
          "type": "uint256"
        }
      ],
      "name": "ViewRequestDetail",
      "outputs": [
        {
          "internalType": "string",
          "name": "stuname",
          "type": "string"
        },
        {
          "internalType": "uint256",
          "name": "bonafide",
          "type": "uint256"
        },
        {
          "internalType": "uint256",
          "name": "rector",
          "type": "uint256"
        },
        {
          "internalType": "uint256",
          "name": "scholor",
          "type": "uint256"
        },
        {
          "internalType": "uint256",
          "name": "academics",
          "type": "uint256"
        },
        {
          "internalType": "uint256",
          "name": "dochash",
          "type": "uint256"
        },
        {
          "internalType": "uint256",
          "name": "status",
          "type": "uint256"
        }
      ],
      "payable": false,
      "stateMutability": "view",
      "type": "function"
    },
    {
      "constant": false,
      "inputs": [
        {
          "internalType": "address",
          "name": "UserAddress",
          "type": "address"
        },
        {
          "internalType": "uint256",
          "name": "RequestIndex",
          "type": "uint256"
        },
        {
          "internalType": "uint256",
          "name": "bonafide",
          "type": "uint256"
        },
        {
          "internalType": "uint256",
          "name": "rector",
          "type": "uint256"
        },
        {
          "internalType": "uint256",
          "name": "scholor",
          "type": "uint256"
        },
        {
          "internalType": "uint256",
          "name": "academics",
          "type": "uint256"
        },
        {
          "internalType": "uint256",
          "name": "dochash",
          "type": "uint256"
        },
        {
          "internalType": "uint256",
          "name": "status",
          "type": "uint256"
        }
      ],
      "name": "UpdateRequestStatus",
      "outputs": [],
      "payable": false,
      "stateMutability": "nonpayable",
      "type": "function"
    }
  ],
  "bytecode": "0x608060405234801561001057600080fd5b50612247806100206000396000f3fe608060405234801561001057600080fd5b50600436106100a95760003560e01c80636d4ce63c116100715780636d4ce63c14610649578063af3f3290146106cc578063de9603b314610966578063e183d77b146109f1578063ff2bf64f14610a49578063ffe4b6be14610be8576100a9565b8063043bf5e2146100ae57806325df45101461019f57806331f00ad61461026d5780634ac32075146103855780634ed3885e1461058e575b600080fd5b6100fa600480360360408110156100c457600080fd5b81019080803573ffffffffffffffffffffffffffffffffffffffff16906020019092919080359060200190929190505050610f1f565b6040518080602001888152602001878152602001868152602001858152602001848152602001838152602001828103825289818151815260200191508051906020019080838360005b8381101561015e578082015181840152602081019050610143565b50505050905090810190601f16801561018b5780820380516001836020036101000a031916815260200191505b509850505050505050505060405180910390f35b6101eb600480360360408110156101b557600080fd5b81019080803573ffffffffffffffffffffffffffffffffffffffff169060200190929190803590602001909291905050506110b6565b6040518080602001838152602001828103825284818151815260200191508051906020019080838360005b83811015610231578082015181840152602081019050610216565b50505050905090810190601f16801561025e5780820380516001836020036101000a031916815260200191505b50935050505060405180910390f35b610383600480360361010081101561028457600080fd5b81019080803573ffffffffffffffffffffffffffffffffffffffff169060200190929190803590602001906401000000008111156102c157600080fd5b8201836020820111156102d357600080fd5b803590602001918460018302840111640100000000831117156102f557600080fd5b91908080601f016020809104026020016040519081016040528093929190818152602001838380828437600081840152601f19601f82011690508083019250505050505050919291929080359060200190929190803590602001909291908035906020019092919080359060200190929190803590602001909291908035906020019092919050505061121e565b005b61058c6004803603608081101561039b57600080fd5b81019080803573ffffffffffffffffffffffffffffffffffffffff169060200190929190803590602001906401000000008111156103d857600080fd5b8201836020820111156103ea57600080fd5b8035906020019184600183028401116401000000008311171561040c57600080fd5b91908080601f016020809104026020016040519081016040528093929190818152602001838380828437600081840152601f19601f8201169050808301925050505050505091929192908035906020019064010000000081111561046f57600080fd5b82018360208201111561048157600080fd5b803590602001918460018302840111640100000000831117156104a357600080fd5b91908080601f016020809104026020016040519081016040528093929190818152602001838380828437600081840152601f19601f8201169050808301925050505050505091929192908035906020019064010000000081111561050657600080fd5b82018360208201111561051857600080fd5b8035906020019184600183028401116401000000008311171561053a57600080fd5b91908080601f016020809104026020016040519081016040528093929190818152602001838380828437600081840152601f19601f820116905080830192505050505050509192919290505050611321565b005b610647600480360360208110156105a457600080fd5b81019080803590602001906401000000008111156105c157600080fd5b8201836020820111156105d357600080fd5b803590602001918460018302840111640100000000831117156105f557600080fd5b91908080601f016020809104026020016040519081016040528093929190818152602001838380828437600081840152601f19601f820116905080830192505050505050509192919290505050611406565b005b610651611420565b6040518080602001828103825283818151815260200191508051906020019080838360005b83811015610691578082015181840152602081019050610676565b50505050905090810190601f1680156106be5780820380516001836020036101000a031916815260200191505b509250505060405180910390f35b610718600480360360408110156106e257600080fd5b81019080803573ffffffffffffffffffffffffffffffffffffffff169060200190929190803590602001909291905050506114c2565b604051808b8152602001806020018a81526020018060200189815260200180602001888152602001806020018781526020018060200186810386528f818151815260200191508051906020019080838360005b8381101561078657808201518184015260208101905061076b565b50505050905090810190601f1680156107b35780820380516001836020036101000a031916815260200191505b5086810385528d818151815260200191508051906020019080838360005b838110156107ec5780820151818401526020810190506107d1565b50505050905090810190601f1680156108195780820380516001836020036101000a031916815260200191505b5086810384528b818151815260200191508051906020019080838360005b83811015610852578082015181840152602081019050610837565b50505050905090810190601f16801561087f5780820380516001836020036101000a031916815260200191505b50868103835289818151815260200191508051906020019080838360005b838110156108b857808201518184015260208101905061089d565b50505050905090810190601f1680156108e55780820380516001836020036101000a031916815260200191505b50868103825287818151815260200191508051906020019080838360005b8381101561091e578082015181840152602081019050610903565b50505050905090810190601f16801561094b5780820380516001836020036101000a031916815260200191505b509f5050505050505050505050505050505060405180910390f35b6109ef600480360361010081101561097d57600080fd5b81019080803573ffffffffffffffffffffffffffffffffffffffff16906020019092919080359060200190929190803590602001909291908035906020019092919080359060200190929190803590602001909291908035906020019092919080359060200190929190505050611a1f565b005b610a3360048036036020811015610a0757600080fd5b81019080803573ffffffffffffffffffffffffffffffffffffffff169060200190929190505050611c69565b6040518082815260200191505060405180910390f35b610a9560048036036040811015610a5f57600080fd5b81019080803573ffffffffffffffffffffffffffffffffffffffff16906020019092919080359060200190929190505050611cb5565b60405180806020018060200180602001848103845287818151815260200191508051906020019080838360005b83811015610add578082015181840152602081019050610ac2565b50505050905090810190601f168015610b0a5780820380516001836020036101000a031916815260200191505b50848103835286818151815260200191508051906020019080838360005b83811015610b43578082015181840152602081019050610b28565b50505050905090810190601f168015610b705780820380516001836020036101000a031916815260200191505b50848103825285818151815260200191508051906020019080838360005b83811015610ba9578082015181840152602081019050610b8e565b50505050905090810190601f168015610bd65780820380516001836020036101000a031916815260200191505b50965050505050505060405180910390f35b610f1d600480360360c0811015610bfe57600080fd5b81019080803573ffffffffffffffffffffffffffffffffffffffff16906020019092919080359060200190640100000000811115610c3b57600080fd5b820183602082011115610c4d57600080fd5b80359060200191846001830284011164010000000083111715610c6f57600080fd5b91908080601f016020809104026020016040519081016040528093929190818152602001838380828437600081840152601f19601f82011690508083019250505050505050919291929080359060200190640100000000811115610cd257600080fd5b820183602082011115610ce457600080fd5b80359060200191846001830284011164010000000083111715610d0657600080fd5b91908080601f016020809104026020016040519081016040528093929190818152602001838380828437600081840152601f19601f82011690508083019250505050505050919291929080359060200190640100000000811115610d6957600080fd5b820183602082011115610d7b57600080fd5b80359060200191846001830284011164010000000083111715610d9d57600080fd5b91908080601f016020809104026020016040519081016040528093929190818152602001838380828437600081840152601f19601f82011690508083019250505050505050919291929080359060200190640100000000811115610e0057600080fd5b820183602082011115610e1257600080fd5b80359060200191846001830284011164010000000083111715610e3457600080fd5b91908080601f016020809104026020016040519081016040528093929190818152602001838380828437600081840152601f19601f82011690508083019250505050505050919291929080359060200190640100000000811115610e9757600080fd5b820183602082011115610ea957600080fd5b80359060200191846001830284011164010000000083111715610ecb57600080fd5b91908080601f016020809104026020016040519081016040528093929190818152602001838380828437600081840152601f19601f820116905080830192505050505050509192919290505050611f33565b005b6060600080600080600080610f32612060565b600360008b73ffffffffffffffffffffffffffffffffffffffff1673ffffffffffffffffffffffffffffffffffffffff1681526020019081526020016000208981548110610f7c57fe5b90600052602060002090600702016040518060e0016040529081600082018054600181600116156101000203166002900480601f01602080910402602001604051908101604052809291908181526020018280546001816001161561010002031660029004801561102e5780601f106110035761010080835404028352916020019161102e565b820191906000526020600020905b81548152906001019060200180831161101157829003601f168201915b5050505050815260200160018201548152602001600282015481526020016003820154815260200160048201548152602001600582015481526020016006820154815250509050806000015181602001518260400151836060015184608001518560a001518660c0015186965097509750975097509750975097505092959891949750929550565b606060006110c2612060565b600360008673ffffffffffffffffffffffffffffffffffffffff1673ffffffffffffffffffffffffffffffffffffffff168152602001908152602001600020848154811061110c57fe5b90600052602060002090600702016040518060e0016040529081600082018054600181600116156101000203166002900480601f0160208091040260200160405190810160405280929190818152602001828054600181600116156101000203166002900480156111be5780601f10611193576101008083540402835291602001916111be565b820191906000526020600020905b8154815290600101906020018083116111a157829003601f168201915b505050505081526020016001820154815260200160028201548152602001600382015481526020016004820154815260200160058201548152602001600682015481525050905080600001518160c0015181915092509250509250929050565b600360008973ffffffffffffffffffffffffffffffffffffffff1673ffffffffffffffffffffffffffffffffffffffff1681526020019081526020016000206040518060e00160405280898152602001888152602001878152602001868152602001858152602001848152602001838152509080600181540180825580915050906001820390600052602060002090600702016000909192909190915060008201518160000190805190602001906112d792919061209d565b506020820151816001015560408201518160020155606082015181600301556080820151816004015560a0820151816005015560c082015181600601555050505050505050505050565b600160008573ffffffffffffffffffffffffffffffffffffffff1673ffffffffffffffffffffffffffffffffffffffff1681526020019081526020016000206040518060600160405280858152602001848152602001838152509080600181540180825580915050906001820390600052602060002090600302016000909192909190915060008201518160000190805190602001906113c292919061209d565b5060208201518160010190805190602001906113df92919061209d565b5060408201518160020190805190602001906113fc92919061209d565b5050505050505050565b806000908051906020019061141c92919061211d565b5050565b606060008054600181600116156101000203166002900480601f0160208091040260200160405190810160405280929190818152602001828054600181600116156101000203166002900480156114b85780601f1061148d576101008083540402835291602001916114b8565b820191906000526020600020905b81548152906001019060200180831161149b57829003601f168201915b5050505050905090565b60006060600060606000606060006060600060606114de61219d565b600260008e73ffffffffffffffffffffffffffffffffffffffff1673ffffffffffffffffffffffffffffffffffffffff16815260200190815260200160002060008154811061152957fe5b90600052602060002090600502016040518060a0016040529081600082018054600181600116156101000203166002900480601f0160208091040260200160405190810160405280929190818152602001828054600181600116156101000203166002900480156115db5780601f106115b0576101008083540402835291602001916115db565b820191906000526020600020905b8154815290600101906020018083116115be57829003601f168201915b50505050508152602001600182018054600181600116156101000203166002900480601f01602080910402602001604051908101604052809291908181526020018280546001816001161561010002031660029004801561167d5780601f106116525761010080835404028352916020019161167d565b820191906000526020600020905b81548152906001019060200180831161166057829003601f168201915b50505050508152602001600282018054600181600116156101000203166002900480601f01602080910402602001604051908101604052809291908181526020018280546001816001161561010002031660029004801561171f5780601f106116f45761010080835404028352916020019161171f565b820191906000526020600020905b81548152906001019060200180831161170257829003601f168201915b50505050508152602001600382018054600181600116156101000203166002900480601f0160208091040260200160405190810160405280929190818152602001828054600181600116156101000203166002900480156117c15780601f10611796576101008083540402835291602001916117c1565b820191906000526020600020905b8154815290600101906020018083116117a457829003601f168201915b50505050508152602001600482018054600181600116156101000203166002900480601f0160208091040260200160405190810160405280929190818152602001828054600181600116156101000203166002900480156118635780601f1061183857610100808354040283529160200191611863565b820191906000526020600020905b81548152906001019060200180831161184657829003601f168201915b5050505050815250509050611876612060565b600360008f73ffffffffffffffffffffffffffffffffffffffff1673ffffffffffffffffffffffffffffffffffffffff1681526020019081526020016000208d815481106118c057fe5b90600052602060002090600702016040518060e0016040529081600082018054600181600116156101000203166002900480601f0160208091040260200160405190810160405280929190818152602001828054600181600116156101000203166002900480156119725780601f1061194757610100808354040283529160200191611972565b820191906000526020600020905b81548152906001019060200180831161195557829003601f168201915b5050505050815260200160018201548152602001600282015481526020016003820154815260200160048201548152602001600582015481526020016006820154815250509050806020015182600001518260400151846020015184606001518660400151866080015188606001518860a001518a608001518898508696508494508292508090509b509b509b509b509b509b509b509b509b509b5050509295989b9194979a5092959850565b85600360008a73ffffffffffffffffffffffffffffffffffffffff1673ffffffffffffffffffffffffffffffffffffffff1681526020019081526020016000208881548110611a6a57fe5b90600052602060002090600702016001018190555084600360008a73ffffffffffffffffffffffffffffffffffffffff1673ffffffffffffffffffffffffffffffffffffffff1681526020019081526020016000208881548110611aca57fe5b90600052602060002090600702016002018190555083600360008a73ffffffffffffffffffffffffffffffffffffffff1673ffffffffffffffffffffffffffffffffffffffff1681526020019081526020016000208881548110611b2a57fe5b90600052602060002090600702016003018190555082600360008a73ffffffffffffffffffffffffffffffffffffffff1673ffffffffffffffffffffffffffffffffffffffff1681526020019081526020016000208881548110611b8a57fe5b90600052602060002090600702016004018190555081600360008a73ffffffffffffffffffffffffffffffffffffffff1673ffffffffffffffffffffffffffffffffffffffff1681526020019081526020016000208881548110611bea57fe5b90600052602060002090600702016005018190555080600360008a73ffffffffffffffffffffffffffffffffffffffff1673ffffffffffffffffffffffffffffffffffffffff1681526020019081526020016000208881548110611c4a57fe5b9060005260206000209060070201600601819055505050505050505050565b6000600360008373ffffffffffffffffffffffffffffffffffffffff1673ffffffffffffffffffffffffffffffffffffffff168152602001908152602001600020805490509050919050565b6060806060611cc26121cc565b600160008773ffffffffffffffffffffffffffffffffffffffff1673ffffffffffffffffffffffffffffffffffffffff1681526020019081526020016000208581548110611d0c57fe5b9060005260206000209060030201604051806060016040529081600082018054600181600116156101000203166002900480601f016020809104026020016040519081016040528092919081815260200182805460018160011615610100020316600290048015611dbe5780601f10611d9357610100808354040283529160200191611dbe565b820191906000526020600020905b815481529060010190602001808311611da157829003601f168201915b50505050508152602001600182018054600181600116156101000203166002900480601f016020809104026020016040519081016040528092919081815260200182805460018160011615610100020316600290048015611e605780601f10611e3557610100808354040283529160200191611e60565b820191906000526020600020905b815481529060010190602001808311611e4357829003601f168201915b50505050508152602001600282018054600181600116156101000203166002900480601f016020809104026020016040519081016040528092919081815260200182805460018160011615610100020316600290048015611f025780601f10611ed757610100808354040283529160200191611f02565b820191906000526020600020905b815481529060010190602001808311611ee557829003601f168201915b5050505050815250509050806000015181602001518260400151829250819150809050935093509350509250925092565b600260008773ffffffffffffffffffffffffffffffffffffffff1673ffffffffffffffffffffffffffffffffffffffff1681526020019081526020016000206040518060a0016040528087815260200186815260200185815260200184815260200183815250908060018154018082558091505090600182039060005260206000209060050201600090919290919091506000820151816000019080519060200190611fe092919061209d565b506020820151816001019080519060200190611ffd92919061209d565b50604082015181600201908051906020019061201a92919061209d565b50606082015181600301908051906020019061203792919061209d565b50608082015181600401908051906020019061205492919061209d565b50505050505050505050565b6040518060e00160405280606081526020016000815260200160008152602001600081526020016000815260200160008152602001600081525090565b828054600181600116156101000203166002900490600052602060002090601f016020900481019282601f106120de57805160ff191683800117855561210c565b8280016001018555821561210c579182015b8281111561210b5782518255916020019190600101906120f0565b5b50905061211991906121ed565b5090565b828054600181600116156101000203166002900490600052602060002090601f016020900481019282601f1061215e57805160ff191683800117855561218c565b8280016001018555821561218c579182015b8281111561218b578251825591602001919060010190612170565b5b50905061219991906121ed565b5090565b6040518060a0016040528060608152602001606081526020016060815260200160608152602001606081525090565b60405180606001604052806060815260200160608152602001606081525090565b61220f91905b8082111561220b5760008160009055506001016121f3565b5090565b9056fea265627a7a72315820accfdcdb7c489ba13673ede70abb2c06a90fb3b6bcf6d5608f611e3373725d0064736f6c63430005100032",
  "source": "pragma solidity >=0.4.22 <0.8.0;\r\n\r\n\r\ncontract Adddoc {\r\n     string memeHash;\r\n\r\n     struct UserInfo{\r\n\t\tstring FullName;\r\n\t\tstring EmailID;\r\n\t\tstring MobileNo;\r\n    }\r\n\r\n    struct Request{\r\n        string stuname;\r\n        uint bonafide;\r\n        uint rector;\r\n        uint scholor;\r\n        uint academics;\r\n        uint dochash;\r\n        uint status;\r\n    }\r\n\r\n    struct Userdata{\r\n        string bonafide;\r\n        string rector;\r\n        string scholor;\r\n        string academics;\r\n        string dochash;\r\n    }\r\n\r\n    mapping(address => UserInfo[]) UserMap;\r\n    mapping(address => Userdata[]) Userdat;\r\n    mapping(address => Request[]) RequestMap;\r\n\r\n\r\n\r\n    function set(string memory _memeHash) public {\r\n        memeHash = _memeHash;\r\n    }\r\n\r\n    function get() public view returns (string memory) {\r\n        return memeHash;\r\n    }\r\n\r\n\r\n    function AddUser(address UserAddress,string memory FullName,string memory EmailID,string memory MobileNo) public\r\n    {\r\n        UserMap[UserAddress].push(UserInfo(FullName,EmailID,MobileNo));\r\n    }\r\n\r\n    function Adduserdata(address UserAddress,string memory bonafide,string memory rector,string memory scholor,string memory academics,string memory dochash) public \r\n    {\r\n        Userdat[UserAddress].push(Userdata(bonafide,rector,scholor,academics,dochash));\r\n    }\r\n    \r\n    function viewUser(address UserAddress, uint RequestIndex) public view returns(uint,string memory,uint,string memory,uint,string memory,uint,string memory,uint,string memory)\r\n    {\r\n\t\tUserdata memory ThisUser=Userdat[UserAddress][0];\r\n        Request memory ThisRequest=RequestMap[UserAddress][RequestIndex];\r\n        return (ThisRequest.bonafide,ThisUser.bonafide,ThisRequest.rector,ThisUser.rector,ThisRequest.scholor,ThisUser.scholor,ThisRequest.academics,ThisUser.academics,ThisRequest.dochash,ThisUser.dochash);\r\n    }\r\n\r\n    \r\n\r\n    function getUser(address ins,uint UserIndex) view public returns (string memory, string memory, string memory) {\r\n        UserInfo memory ThisUser=UserMap[ins][UserIndex];\r\n        return (ThisUser.FullName, ThisUser.EmailID, ThisUser.MobileNo);\r\n    }\r\n    \r\n    function AddRequest(address UserAddress,string memory stuname,uint bonafide,uint rector,uint scholor,uint academics,uint dochash,uint status ) public\r\n    {\r\n        RequestMap[UserAddress].push(Request(stuname,bonafide,rector,scholor,academics,dochash,status));\r\n    }\r\n    \r\n    function ViewRequestLength(address UserAddress) view public returns(uint)\r\n    {\r\n        return RequestMap[UserAddress].length;\r\n    }\r\n    \r\n    function ViewRequestHeader(address UserAddress, uint RequestIndex) view public returns(string memory stuname, uint status)\r\n    {\r\n        Request memory ThisRequest=RequestMap[UserAddress][RequestIndex];\r\n        return (ThisRequest.stuname, ThisRequest.status);\r\n    }\r\n\r\n    function ViewRequestDetail(address UserAddress, uint RequestIndex) view public returns(string memory stuname,uint bonafide,uint rector,uint scholor,uint academics,uint dochash,uint status)\r\n    {\r\n        Request memory ThisRequest=RequestMap[UserAddress][RequestIndex];\r\n        return (ThisRequest.stuname, ThisRequest.bonafide,ThisRequest.rector, ThisRequest.scholor, ThisRequest.academics, ThisRequest.dochash,ThisRequest.status);\r\n    }\r\n\r\n    function UpdateRequestStatus(address UserAddress, uint RequestIndex, uint bonafide,uint rector,uint scholor,uint academics,uint dochash,uint status) public\r\n    {\r\n        RequestMap[UserAddress][RequestIndex].bonafide=bonafide;\r\n\t\tRequestMap[UserAddress][RequestIndex].rector=rector;\r\n\t    RequestMap[UserAddress][RequestIndex].scholor=scholor;\r\n\t\tRequestMap[UserAddress][RequestIndex].academics=academics;\r\n\t\tRequestMap[UserAddress][RequestIndex].dochash=dochash;\r\n\t\tRequestMap[UserAddress][RequestIndex].status=status;\r\n    }\r\n   \r\n}\r\n                                        ",
  "sourcePath": "D:/learnreact/src/contracts/Adddoc.sol",
  "compiler": {
    "name": "solc",
    "version": "0.5.16+commit.9c3226ce.Emscripten.clang"
  },
  "schemaVersion": "3.2.4",
  "updatedAt": "2020-10-17T20:09:27.328Z",
  "networkType": "ethereum",
  "devdoc": {
    "methods": {}
  },
  "userdoc": {
    "methods": {}
  }
}