{
  "contractName": "Adddoc",
  "abi": [
    {
      "constant": false,
      "inputs": [
        {
          "internalType": "string",
          "name": "_memeHash",
          "type": "string"
        }
      ],
      "name": "set",
      "outputs": [],
      "payable": false,
      "stateMutability": "nonpayable",
      "type": "function"
    },
    {
      "constant": true,
      "inputs": [],
      "name": "get",
      "outputs": [
        {
          "internalType": "string",
          "name": "",
          "type": "string"
        }
      ],
      "payable": false,
      "stateMutability": "view",
      "type": "function"
    },
    {
      "constant": false,
      "inputs": [
        {
          "internalType": "address",
          "name": "UserAddress",
          "type": "address"
        },
        {
          "internalType": "string",
          "name": "FullName",
          "type": "string"
        },
        {
          "internalType": "string",
          "name": "EmailID",
          "type": "string"
        },
        {
          "internalType": "string",
          "name": "MobileNo",
          "type": "string"
        }
      ],
      "name": "AddUser",
      "outputs": [],
      "payable": false,
      "stateMutability": "nonpayable",
      "type": "function"
    },
    {
      "constant": true,
      "inputs": [
        {
          "internalType": "address",
          "name": "ins",
          "type": "address"
        },
        {
          "internalType": "uint256",
          "name": "UserIndex",
          "type": "uint256"
        }
      ],
      "name": "getUser",
      "outputs": [
        {
          "internalType": "string",
          "name": "",
          "type": "string"
        },
        {
          "internalType": "string",
          "name": "",
          "type": "string"
        },
        {
          "internalType": "string",
          "name": "",
          "type": "string"
        }
      ],
      "payable": false,
      "stateMutability": "view",
      "type": "function"
    },
    {
      "constant": false,
      "inputs": [
        {
          "internalType": "address",
          "name": "UserAddress",
          "type": "address"
        },
        {
          "internalType": "string",
          "name": "stuname",
          "type": "string"
        },
        {
          "internalType": "uint256",
          "name": "bonafide",
          "type": "uint256"
        },
        {
          "internalType": "uint256",
          "name": "rector",
          "type": "uint256"
        },
        {
          "internalType": "uint256",
          "name": "scholor",
          "type": "uint256"
        },
        {
          "internalType": "uint256",
          "name": "academics",
          "type": "uint256"
        },
        {
          "internalType": "uint256",
          "name": "dochash",
          "type": "uint256"
        },
        {
          "internalType": "uint256",
          "name": "status",
          "type": "uint256"
        }
      ],
      "name": "AddRequest",
      "outputs": [],
      "payable": false,
      "stateMutability": "nonpayable",
      "type": "function"
    },
    {
      "constant": true,
      "inputs": [
        {
          "internalType": "address",
          "name": "UserAddress",
          "type": "address"
        }
      ],
      "name": "ViewRequestLength",
      "outputs": [
        {
          "internalType": "uint256",
          "name": "",
          "type": "uint256"
        }
      ],
      "payable": false,
      "stateMutability": "view",
      "type": "function"
    },
    {
      "constant": true,
      "inputs": [
        {
          "internalType": "address",
          "name": "UserAddress",
          "type": "address"
        },
        {
          "internalType": "uint256",
          "name": "RequestIndex",
          "type": "uint256"
        }
      ],
      "name": "ViewRequestHeader",
      "outputs": [
        {
          "internalType": "string",
          "name": "stuname",
          "type": "string"
        },
        {
          "internalType": "uint256",
          "name": "status",
          "type": "uint256"
        }
      ],
      "payable": false,
      "stateMutability": "view",
      "type": "function"
    },
    {
      "constant": true,
      "inputs": [
        {
          "internalType": "address",
          "name": "UserAddress",
          "type": "address"
        },
        {
          "internalType": "uint256",
          "name": "RequestIndex",
          "type": "uint256"
        }
      ],
      "name": "ViewRequestDetail",
      "outputs": [
        {
          "internalType": "string",
          "name": "stuname",
          "type": "string"
        },
        {
          "internalType": "uint256",
          "name": "bonafide",
          "type": "uint256"
        },
        {
          "internalType": "uint256",
          "name": "rector",
          "type": "uint256"
        },
        {
          "internalType": "uint256",
          "name": "scholor",
          "type": "uint256"
        },
        {
          "internalType": "uint256",
          "name": "academics",
          "type": "uint256"
        },
        {
          "internalType": "uint256",
          "name": "dochash",
          "type": "uint256"
        },
        {
          "internalType": "uint256",
          "name": "status",
          "type": "uint256"
        }
      ],
      "payable": false,
      "stateMutability": "view",
      "type": "function"
    },
    {
      "constant": false,
      "inputs": [
        {
          "internalType": "address",
          "name": "UserAddress",
          "type": "address"
        },
        {
          "internalType": "uint256",
          "name": "RequestIndex",
          "type": "uint256"
        },
        {
          "internalType": "uint256",
          "name": "bonafide",
          "type": "uint256"
        },
        {
          "internalType": "uint256",
          "name": "rector",
          "type": "uint256"
        },
        {
          "internalType": "uint256",
          "name": "scholor",
          "type": "uint256"
        },
        {
          "internalType": "uint256",
          "name": "academics",
          "type": "uint256"
        },
        {
          "internalType": "uint256",
          "name": "dochash",
          "type": "uint256"
        },
        {
          "internalType": "uint256",
          "name": "status",
          "type": "uint256"
        }
      ],
      "name": "UpdateRequestStatus",
      "outputs": [],
      "payable": false,
      "stateMutability": "nonpayable",
      "type": "function"
    }
  ],
  "bytecode": "0x608060405234801561001057600080fd5b506115a7806100206000396000f3fe608060405234801561001057600080fd5b50600436106100935760003560e01c80634ed3885e116100665780634ed3885e146105785780636d4ce63c14610633578063de9603b3146106b6578063e183d77b14610741578063ff2bf64f1461079957610093565b8063043bf5e21461009857806325df45101461018957806331f00ad6146102575780634ac320751461036f575b600080fd5b6100e4600480360360408110156100ae57600080fd5b81019080803573ffffffffffffffffffffffffffffffffffffffff16906020019092919080359060200190929190505050610938565b6040518080602001888152602001878152602001868152602001858152602001848152602001838152602001828103825289818151815260200191508051906020019080838360005b8381101561014857808201518184015260208101905061012d565b50505050905090810190601f1680156101755780820380516001836020036101000a031916815260200191505b509850505050505050505060405180910390f35b6101d56004803603604081101561019f57600080fd5b81019080803573ffffffffffffffffffffffffffffffffffffffff16906020019092919080359060200190929190505050610acf565b6040518080602001838152602001828103825284818151815260200191508051906020019080838360005b8381101561021b578082015181840152602081019050610200565b50505050905090810190601f1680156102485780820380516001836020036101000a031916815260200191505b50935050505060405180910390f35b61036d600480360361010081101561026e57600080fd5b81019080803573ffffffffffffffffffffffffffffffffffffffff169060200190929190803590602001906401000000008111156102ab57600080fd5b8201836020820111156102bd57600080fd5b803590602001918460018302840111640100000000831117156102df57600080fd5b91908080601f016020809104026020016040519081016040528093929190818152602001838380828437600081840152601f19601f820116905080830192505050505050509192919290803590602001909291908035906020019092919080359060200190929190803590602001909291908035906020019092919080359060200190929190505050610c37565b005b6105766004803603608081101561038557600080fd5b81019080803573ffffffffffffffffffffffffffffffffffffffff169060200190929190803590602001906401000000008111156103c257600080fd5b8201836020820111156103d457600080fd5b803590602001918460018302840111640100000000831117156103f657600080fd5b91908080601f016020809104026020016040519081016040528093929190818152602001838380828437600081840152601f19601f8201169050808301925050505050505091929192908035906020019064010000000081111561045957600080fd5b82018360208201111561046b57600080fd5b8035906020019184600183028401116401000000008311171561048d57600080fd5b91908080601f016020809104026020016040519081016040528093929190818152602001838380828437600081840152601f19601f820116905080830192505050505050509192919290803590602001906401000000008111156104f057600080fd5b82018360208201111561050257600080fd5b8035906020019184600183028401116401000000008311171561052457600080fd5b91908080601f016020809104026020016040519081016040528093929190818152602001838380828437600081840152601f19601f820116905080830192505050505050509192919290505050610d3a565b005b6106316004803603602081101561058e57600080fd5b81019080803590602001906401000000008111156105ab57600080fd5b8201836020820111156105bd57600080fd5b803590602001918460018302840111640100000000831117156105df57600080fd5b91908080601f016020809104026020016040519081016040528093929190818152602001838380828437600081840152601f19601f820116905080830192505050505050509192919290505050610e1f565b005b61063b610e39565b6040518080602001828103825283818151815260200191508051906020019080838360005b8381101561067b578082015181840152602081019050610660565b50505050905090810190601f1680156106a85780820380516001836020036101000a031916815260200191505b509250505060405180910390f35b61073f60048036036101008110156106cd57600080fd5b81019080803573ffffffffffffffffffffffffffffffffffffffff16906020019092919080359060200190929190803590602001909291908035906020019092919080359060200190929190803590602001909291908035906020019092919080359060200190929190505050610edb565b005b6107836004803603602081101561075757600080fd5b81019080803573ffffffffffffffffffffffffffffffffffffffff169060200190929190505050611125565b6040518082815260200191505060405180910390f35b6107e5600480360360408110156107af57600080fd5b81019080803573ffffffffffffffffffffffffffffffffffffffff16906020019092919080359060200190929190505050611171565b60405180806020018060200180602001848103845287818151815260200191508051906020019080838360005b8381101561082d578082015181840152602081019050610812565b50505050905090810190601f16801561085a5780820380516001836020036101000a031916815260200191505b50848103835286818151815260200191508051906020019080838360005b83811015610893578082015181840152602081019050610878565b50505050905090810190601f1680156108c05780820380516001836020036101000a031916815260200191505b50848103825285818151815260200191508051906020019080838360005b838110156108f95780820151818401526020810190506108de565b50505050905090810190601f1680156109265780820380516001836020036101000a031916815260200191505b50965050505050505060405180910390f35b606060008060008060008061094b6113ef565b600260008b73ffffffffffffffffffffffffffffffffffffffff1673ffffffffffffffffffffffffffffffffffffffff168152602001908152602001600020898154811061099557fe5b90600052602060002090600702016040518060e0016040529081600082018054600181600116156101000203166002900480601f016020809104026020016040519081016040528092919081815260200182805460018160011615610100020316600290048015610a475780601f10610a1c57610100808354040283529160200191610a47565b820191906000526020600020905b815481529060010190602001808311610a2a57829003601f168201915b5050505050815260200160018201548152602001600282015481526020016003820154815260200160048201548152602001600582015481526020016006820154815250509050806000015181602001518260400151836060015184608001518560a001518660c0015186965097509750975097509750975097505092959891949750929550565b60606000610adb6113ef565b600260008673ffffffffffffffffffffffffffffffffffffffff1673ffffffffffffffffffffffffffffffffffffffff1681526020019081526020016000208481548110610b2557fe5b90600052602060002090600702016040518060e0016040529081600082018054600181600116156101000203166002900480601f016020809104026020016040519081016040528092919081815260200182805460018160011615610100020316600290048015610bd75780601f10610bac57610100808354040283529160200191610bd7565b820191906000526020600020905b815481529060010190602001808311610bba57829003601f168201915b505050505081526020016001820154815260200160028201548152602001600382015481526020016004820154815260200160058201548152602001600682015481525050905080600001518160c0015181915092509250509250929050565b600260008973ffffffffffffffffffffffffffffffffffffffff1673ffffffffffffffffffffffffffffffffffffffff1681526020019081526020016000206040518060e0016040528089815260200188815260200187815260200186815260200185815260200184815260200183815250908060018154018082558091505090600182039060005260206000209060070201600090919290919091506000820151816000019080519060200190610cf092919061142c565b506020820151816001015560408201518160020155606082015181600301556080820151816004015560a0820151816005015560c082015181600601555050505050505050505050565b600160008573ffffffffffffffffffffffffffffffffffffffff1673ffffffffffffffffffffffffffffffffffffffff168152602001908152602001600020604051806060016040528085815260200184815260200183815250908060018154018082558091505090600182039060005260206000209060030201600090919290919091506000820151816000019080519060200190610ddb92919061142c565b506020820151816001019080519060200190610df892919061142c565b506040820151816002019080519060200190610e1592919061142c565b5050505050505050565b8060009080519060200190610e359291906114ac565b5050565b606060008054600181600116156101000203166002900480601f016020809104026020016040519081016040528092919081815260200182805460018160011615610100020316600290048015610ed15780601f10610ea657610100808354040283529160200191610ed1565b820191906000526020600020905b815481529060010190602001808311610eb457829003601f168201915b5050505050905090565b85600260008a73ffffffffffffffffffffffffffffffffffffffff1673ffffffffffffffffffffffffffffffffffffffff1681526020019081526020016000208881548110610f2657fe5b90600052602060002090600702016001018190555084600260008a73ffffffffffffffffffffffffffffffffffffffff1673ffffffffffffffffffffffffffffffffffffffff1681526020019081526020016000208881548110610f8657fe5b90600052602060002090600702016002018190555083600260008a73ffffffffffffffffffffffffffffffffffffffff1673ffffffffffffffffffffffffffffffffffffffff1681526020019081526020016000208881548110610fe657fe5b90600052602060002090600702016003018190555082600260008a73ffffffffffffffffffffffffffffffffffffffff1673ffffffffffffffffffffffffffffffffffffffff168152602001908152602001600020888154811061104657fe5b90600052602060002090600702016004018190555081600260008a73ffffffffffffffffffffffffffffffffffffffff1673ffffffffffffffffffffffffffffffffffffffff16815260200190815260200160002088815481106110a657fe5b90600052602060002090600702016005018190555080600260008a73ffffffffffffffffffffffffffffffffffffffff1673ffffffffffffffffffffffffffffffffffffffff168152602001908152602001600020888154811061110657fe5b9060005260206000209060070201600601819055505050505050505050565b6000600260008373ffffffffffffffffffffffffffffffffffffffff1673ffffffffffffffffffffffffffffffffffffffff168152602001908152602001600020805490509050919050565b606080606061117e61152c565b600160008773ffffffffffffffffffffffffffffffffffffffff1673ffffffffffffffffffffffffffffffffffffffff16815260200190815260200160002085815481106111c857fe5b9060005260206000209060030201604051806060016040529081600082018054600181600116156101000203166002900480601f01602080910402602001604051908101604052809291908181526020018280546001816001161561010002031660029004801561127a5780601f1061124f5761010080835404028352916020019161127a565b820191906000526020600020905b81548152906001019060200180831161125d57829003601f168201915b50505050508152602001600182018054600181600116156101000203166002900480601f01602080910402602001604051908101604052809291908181526020018280546001816001161561010002031660029004801561131c5780601f106112f15761010080835404028352916020019161131c565b820191906000526020600020905b8154815290600101906020018083116112ff57829003601f168201915b50505050508152602001600282018054600181600116156101000203166002900480601f0160208091040260200160405190810160405280929190818152602001828054600181600116156101000203166002900480156113be5780601f10611393576101008083540402835291602001916113be565b820191906000526020600020905b8154815290600101906020018083116113a157829003601f168201915b5050505050815250509050806000015181602001518260400151829250819150809050935093509350509250925092565b6040518060e00160405280606081526020016000815260200160008152602001600081526020016000815260200160008152602001600081525090565b828054600181600116156101000203166002900490600052602060002090601f016020900481019282601f1061146d57805160ff191683800117855561149b565b8280016001018555821561149b579182015b8281111561149a57825182559160200191906001019061147f565b5b5090506114a8919061154d565b5090565b828054600181600116156101000203166002900490600052602060002090601f016020900481019282601f106114ed57805160ff191683800117855561151b565b8280016001018555821561151b579182015b8281111561151a5782518255916020019190600101906114ff565b5b509050611528919061154d565b5090565b60405180606001604052806060815260200160608152602001606081525090565b61156f91905b8082111561156b576000816000905550600101611553565b5090565b9056fea265627a7a72315820bab2e4c5768ba481acd292295be21739682f8d0eadd4591de5dc943a8c46799164736f6c63430005100032",
  "source": "pragma solidity >=0.4.22 <0.8.0;\r\n\r\n\r\ncontract Adddoc {\r\n     string memeHash;\r\n\r\n     struct UserInfo{\r\n\t\tstring FullName;\r\n\t\tstring EmailID;\r\n\t\tstring MobileNo;\r\n    }\r\n\r\n    struct Request{\r\n        string stuname;\r\n        uint bonafide;\r\n        uint rector;\r\n        uint scholor;\r\n        uint academics;\r\n        uint dochash;\r\n        uint status;\r\n    }\r\n\r\n    mapping(address => UserInfo[]) UserMap;\r\n    mapping(address => Request[]) RequestMap;\r\n\r\n\r\n\r\n    function set(string memory _memeHash) public {\r\n        memeHash = _memeHash;\r\n    }\r\n\r\n    function get() public view returns (string memory) {\r\n        return memeHash;\r\n    }\r\n\r\n\r\n    function AddUser(address UserAddress,string memory FullName,string memory EmailID,string memory MobileNo) public\r\n    {\r\n        UserMap[UserAddress].push(UserInfo(FullName,EmailID,MobileNo));\r\n    }\r\n    \r\n\r\n    function getUser(address ins,uint UserIndex) view public returns (string memory, string memory, string memory) {\r\n        UserInfo memory ThisUser=UserMap[ins][UserIndex];\r\n        return (ThisUser.FullName, ThisUser.EmailID, ThisUser.MobileNo);\r\n    }\r\n    \r\n    function AddRequest(address UserAddress,string memory stuname,uint bonafide,uint rector,uint scholor,uint academics,uint dochash,uint status ) public\r\n    {\r\n        RequestMap[UserAddress].push(Request(stuname,bonafide,rector,scholor,academics,dochash,status));\r\n    }\r\n    \r\n    function ViewRequestLength(address UserAddress) view public returns(uint)\r\n    {\r\n        return RequestMap[UserAddress].length;\r\n    }\r\n    \r\n    function ViewRequestHeader(address UserAddress, uint RequestIndex) view public returns(string memory stuname, uint status)\r\n    {\r\n        Request memory ThisRequest=RequestMap[UserAddress][RequestIndex];\r\n        return (ThisRequest.stuname, ThisRequest.status);\r\n    }\r\n\r\n    function ViewRequestDetail(address UserAddress, uint RequestIndex) view public returns(string memory stuname,uint bonafide,uint rector,uint scholor,uint academics,uint dochash,uint status)\r\n    {\r\n        Request memory ThisRequest=RequestMap[UserAddress][RequestIndex];\r\n        return (ThisRequest.stuname, ThisRequest.bonafide,ThisRequest.rector, ThisRequest.scholor, ThisRequest.academics, ThisRequest.dochash,ThisRequest.status);\r\n    }\r\n\r\n    function UpdateRequestStatus(address UserAddress, uint RequestIndex, uint bonafide,uint rector,uint scholor,uint academics,uint dochash,uint status) public\r\n    {\r\n        RequestMap[UserAddress][RequestIndex].bonafide=bonafide;\r\n\t\tRequestMap[UserAddress][RequestIndex].rector=rector;\r\n\t    RequestMap[UserAddress][RequestIndex].scholor=scholor;\r\n\t\tRequestMap[UserAddress][RequestIndex].academics=academics;\r\n\t\tRequestMap[UserAddress][RequestIndex].dochash=dochash;\r\n\t\tRequestMap[UserAddress][RequestIndex].status=status;\r\n    }\r\n   \r\n}\r\n                                        ",
  "sourcePath": "D:/learnreact/src/contracts/Adddoc.sol",
  "compiler": {
    "name": "solc",
    "version": "0.5.16+commit.9c3226ce.Emscripten.clang"
  },
  "schemaVersion": "3.2.4",
  "updatedAt": "2020-10-16T17:41:01.005Z",
  "networkType": "ethereum",
  "devdoc": {
    "methods": {}
  },
  "userdoc": {
    "methods": {}
  }
}