{
  "contractName": "Adddoc",
  "abi": [
    {
      "constant": true,
      "inputs": [
        {
          "internalType": "uint256",
          "name": "",
          "type": "uint256"
        }
      ],
      "name": "User",
      "outputs": [
        {
          "internalType": "address",
          "name": "",
          "type": "address"
        }
      ],
      "payable": false,
      "stateMutability": "view",
      "type": "function"
    },
    {
      "constant": false,
      "inputs": [
        {
          "internalType": "string",
          "name": "_memeHash",
          "type": "string"
        }
      ],
      "name": "set",
      "outputs": [],
      "payable": false,
      "stateMutability": "nonpayable",
      "type": "function"
    },
    {
      "constant": true,
      "inputs": [],
      "name": "get",
      "outputs": [
        {
          "internalType": "string",
          "name": "",
          "type": "string"
        }
      ],
      "payable": false,
      "stateMutability": "view",
      "type": "function"
    },
    {
      "constant": false,
      "inputs": [
        {
          "internalType": "address",
          "name": "UserAddress",
          "type": "address"
        },
        {
          "internalType": "string",
          "name": "FullName",
          "type": "string"
        },
        {
          "internalType": "string",
          "name": "EmailID",
          "type": "string"
        },
        {
          "internalType": "string",
          "name": "MobileNo",
          "type": "string"
        }
      ],
      "name": "AddUser",
      "outputs": [],
      "payable": false,
      "stateMutability": "nonpayable",
      "type": "function"
    },
    {
      "constant": true,
      "inputs": [],
      "name": "getUsers",
      "outputs": [
        {
          "internalType": "address[]",
          "name": "",
          "type": "address[]"
        }
      ],
      "payable": false,
      "stateMutability": "view",
      "type": "function"
    },
    {
      "constant": true,
      "inputs": [
        {
          "internalType": "address",
          "name": "ins",
          "type": "address"
        }
      ],
      "name": "getUser",
      "outputs": [
        {
          "internalType": "string",
          "name": "",
          "type": "string"
        },
        {
          "internalType": "string",
          "name": "",
          "type": "string"
        },
        {
          "internalType": "string",
          "name": "",
          "type": "string"
        }
      ],
      "payable": false,
      "stateMutability": "view",
      "type": "function"
    }
  ],
  "bytecode": "0x608060405234801561001057600080fd5b50610cbb806100206000396000f3fe608060405234801561001057600080fd5b50600436106100615760003560e01c8062ce8e3e146100665780633fbb468a146100c55780634ac32075146101335780634ed3885e1461033c5780636d4ce63c146103f75780636f77926b1461047a575b600080fd5b61006e61060f565b6040518080602001828103825283818151815260200191508051906020019060200280838360005b838110156100b1578082015181840152602081019050610096565b505050509050019250505060405180910390f35b6100f1600480360360208110156100db57600080fd5b810190808035906020019092919050505061069d565b604051808273ffffffffffffffffffffffffffffffffffffffff1673ffffffffffffffffffffffffffffffffffffffff16815260200191505060405180910390f35b61033a6004803603608081101561014957600080fd5b81019080803573ffffffffffffffffffffffffffffffffffffffff1690602001909291908035906020019064010000000081111561018657600080fd5b82018360208201111561019857600080fd5b803590602001918460018302840111640100000000831117156101ba57600080fd5b91908080601f016020809104026020016040519081016040528093929190818152602001838380828437600081840152601f19601f8201169050808301925050505050505091929192908035906020019064010000000081111561021d57600080fd5b82018360208201111561022f57600080fd5b8035906020019184600183028401116401000000008311171561025157600080fd5b91908080601f016020809104026020016040519081016040528093929190818152602001838380828437600081840152601f19601f820116905080830192505050505050509192919290803590602001906401000000008111156102b457600080fd5b8201836020820111156102c657600080fd5b803590602001918460018302840111640100000000831117156102e857600080fd5b91908080601f016020809104026020016040519081016040528093929190818152602001838380828437600081840152601f19601f8201169050808301925050505050505091929192905050506106d9565b005b6103f56004803603602081101561035257600080fd5b810190808035906020019064010000000081111561036f57600080fd5b82018360208201111561038157600080fd5b803590602001918460018302840111640100000000831117156103a357600080fd5b91908080601f016020809104026020016040519081016040528093929190818152602001838380828437600081840152601f19601f8201169050808301925050505050505091929192905050506107f9565b005b6103ff610813565b6040518080602001828103825283818151815260200191508051906020019080838360005b8381101561043f578082015181840152602081019050610424565b50505050905090810190601f16801561046c5780820380516001836020036101000a031916815260200191505b509250505060405180910390f35b6104bc6004803603602081101561049057600080fd5b81019080803573ffffffffffffffffffffffffffffffffffffffff1690602001909291905050506108b5565b60405180806020018060200180602001848103845287818151815260200191508051906020019080838360005b838110156105045780820151818401526020810190506104e9565b50505050905090810190601f1680156105315780820380516001836020036101000a031916815260200191505b50848103835286818151815260200191508051906020019080838360005b8381101561056a57808201518184015260208101905061054f565b50505050905090810190601f1680156105975780820380516001836020036101000a031916815260200191505b50848103825285818151815260200191508051906020019080838360005b838110156105d05780820151818401526020810190506105b5565b50505050905090810190601f1680156105fd5780820380516001836020036101000a031916815260200191505b50965050505050505060405180910390f35b6060600180548060200260200160405190810160405280929190818152602001828054801561069357602002820191906000526020600020905b8160009054906101000a900473ffffffffffffffffffffffffffffffffffffffff1673ffffffffffffffffffffffffffffffffffffffff1681526020019060010190808311610649575b5050505050905090565b600181815481106106aa57fe5b906000526020600020016000915054906101000a900473ffffffffffffffffffffffffffffffffffffffff1681565b604051806060016040528084815260200183815260200182815250600260008673ffffffffffffffffffffffffffffffffffffffff1673ffffffffffffffffffffffffffffffffffffffff168152602001908152602001600020600082015181600001908051906020019061074f929190610b61565b50602082015181600101908051906020019061076c929190610b61565b506040820151816002019080519060200190610789929190610b61565b5090505060018490806001815401808255809150509060018203906000526020600020016000909192909190916101000a81548173ffffffffffffffffffffffffffffffffffffffff021916908373ffffffffffffffffffffffffffffffffffffffff1602179055505050505050565b806000908051906020019061080f929190610be1565b5050565b606060008054600181600116156101000203166002900480601f0160208091040260200160405190810160405280929190818152602001828054600181600116156101000203166002900480156108ab5780601f10610880576101008083540402835291602001916108ab565b820191906000526020600020905b81548152906001019060200180831161088e57829003601f168201915b5050505050905090565b6060806060600260008573ffffffffffffffffffffffffffffffffffffffff1673ffffffffffffffffffffffffffffffffffffffff168152602001908152602001600020600001600260008673ffffffffffffffffffffffffffffffffffffffff1673ffffffffffffffffffffffffffffffffffffffff168152602001908152602001600020600101600260008773ffffffffffffffffffffffffffffffffffffffff1673ffffffffffffffffffffffffffffffffffffffff168152602001908152602001600020600201828054600181600116156101000203166002900480601f016020809104026020016040519081016040528092919081815260200182805460018160011615610100020316600290048015610a155780601f106109ea57610100808354040283529160200191610a15565b820191906000526020600020905b8154815290600101906020018083116109f857829003601f168201915b50505050509250818054600181600116156101000203166002900480601f016020809104026020016040519081016040528092919081815260200182805460018160011615610100020316600290048015610ab15780601f10610a8657610100808354040283529160200191610ab1565b820191906000526020600020905b815481529060010190602001808311610a9457829003601f168201915b50505050509150808054600181600116156101000203166002900480601f016020809104026020016040519081016040528092919081815260200182805460018160011615610100020316600290048015610b4d5780601f10610b2257610100808354040283529160200191610b4d565b820191906000526020600020905b815481529060010190602001808311610b3057829003601f168201915b505050505090509250925092509193909250565b828054600181600116156101000203166002900490600052602060002090601f016020900481019282601f10610ba257805160ff1916838001178555610bd0565b82800160010185558215610bd0579182015b82811115610bcf578251825591602001919060010190610bb4565b5b509050610bdd9190610c61565b5090565b828054600181600116156101000203166002900490600052602060002090601f016020900481019282601f10610c2257805160ff1916838001178555610c50565b82800160010185558215610c50579182015b82811115610c4f578251825591602001919060010190610c34565b5b509050610c5d9190610c61565b5090565b610c8391905b80821115610c7f576000816000905550600101610c67565b5090565b9056fea265627a7a7231582058a95007788d4a538f75481d3084b4bc946b69b570fb88d0c9c17cbedea049e164736f6c63430005100032",
  "source": "pragma solidity >=0.4.22 <0.8.0;\r\n\r\n\r\ncontract Adddoc {\r\n     string memeHash;\r\n     \r\n     struct UserInfo{\r\n\t\tstring FullName;\r\n\t\tstring EmailID;\r\n\t\tstring MobileNo;\r\n    }\r\n\r\n    address [] public User;\r\n    mapping(address => UserInfo) UserMap;\r\n\r\n       \r\n\r\n    function set(string memory _memeHash) public {\r\n        memeHash = _memeHash;\r\n    }\r\n\r\n    function get() public view returns (string memory) {\r\n        return memeHash;\r\n    }\r\n    \r\n\r\n    function AddUser(address UserAddress,string memory FullName,string memory EmailID,string memory MobileNo) public\r\n    {   \r\n        UserMap[UserAddress]=UserInfo(FullName,EmailID,MobileNo);\r\n        User.push(UserAddress);\r\n    }\r\n    \r\n    function getUsers() view public returns (address[] memory) {\r\n        return User;\r\n    }\r\n    \r\n    function getUser(address ins) view public returns (string memory, string memory, string memory) {\r\n        return (UserMap[ins].FullName,UserMap[ins].EmailID,UserMap[ins].MobileNo );\r\n    }\r\n}",
  "sourcePath": "D:/learnreact/src/contracts/Adddoc.sol",
  "compiler": {
    "name": "solc",
    "version": "0.5.16+commit.9c3226ce.Emscripten.clang"
  },
  "schemaVersion": "3.2.4",
  "updatedAt": "2020-10-12T17:56:55.706Z",
  "networkType": "ethereum",
  "devdoc": {
    "methods": {}
  },
  "userdoc": {
    "methods": {}
  }
}