{
  "contractName": "Adddoc",
  "abi": [
    {
      "constant": false,
      "inputs": [
        {
          "internalType": "string",
          "name": "_memeHash",
          "type": "string"
        }
      ],
      "name": "set",
      "outputs": [],
      "payable": false,
      "stateMutability": "nonpayable",
      "type": "function"
    },
    {
      "constant": true,
      "inputs": [],
      "name": "get",
      "outputs": [
        {
          "internalType": "string",
          "name": "",
          "type": "string"
        }
      ],
      "payable": false,
      "stateMutability": "view",
      "type": "function"
    },
    {
      "constant": false,
      "inputs": [
        {
          "internalType": "address",
          "name": "UserAddress",
          "type": "address"
        },
        {
          "internalType": "string",
          "name": "FullName",
          "type": "string"
        },
        {
          "internalType": "string",
          "name": "EmailID",
          "type": "string"
        },
        {
          "internalType": "string",
          "name": "MobileNo",
          "type": "string"
        }
      ],
      "name": "AddUser",
      "outputs": [],
      "payable": false,
      "stateMutability": "nonpayable",
      "type": "function"
    },
    {
      "constant": true,
      "inputs": [
        {
          "internalType": "address",
          "name": "ins",
          "type": "address"
        },
        {
          "internalType": "uint256",
          "name": "UserIndex",
          "type": "uint256"
        }
      ],
      "name": "getUser",
      "outputs": [
        {
          "internalType": "string",
          "name": "",
          "type": "string"
        },
        {
          "internalType": "string",
          "name": "",
          "type": "string"
        },
        {
          "internalType": "string",
          "name": "",
          "type": "string"
        }
      ],
      "payable": false,
      "stateMutability": "view",
      "type": "function"
    },
    {
      "constant": false,
      "inputs": [
        {
          "internalType": "address",
          "name": "UserAddress",
          "type": "address"
        },
        {
          "internalType": "string",
          "name": "stuname",
          "type": "string"
        },
        {
          "internalType": "string",
          "name": "bonafide",
          "type": "string"
        },
        {
          "internalType": "string",
          "name": "book_bank",
          "type": "string"
        },
        {
          "internalType": "string",
          "name": "rector",
          "type": "string"
        },
        {
          "internalType": "string",
          "name": "scholor",
          "type": "string"
        },
        {
          "internalType": "string",
          "name": "academics",
          "type": "string"
        },
        {
          "internalType": "string",
          "name": "dochash",
          "type": "string"
        },
        {
          "internalType": "uint256",
          "name": "status",
          "type": "uint256"
        }
      ],
      "name": "AddRequest",
      "outputs": [],
      "payable": false,
      "stateMutability": "nonpayable",
      "type": "function"
    },
    {
      "constant": true,
      "inputs": [
        {
          "internalType": "address",
          "name": "UserAddress",
          "type": "address"
        }
      ],
      "name": "ViewRequestLength",
      "outputs": [
        {
          "internalType": "uint256",
          "name": "",
          "type": "uint256"
        }
      ],
      "payable": false,
      "stateMutability": "view",
      "type": "function"
    },
    {
      "constant": true,
      "inputs": [
        {
          "internalType": "address",
          "name": "UserAddress",
          "type": "address"
        },
        {
          "internalType": "uint256",
          "name": "RequestIndex",
          "type": "uint256"
        }
      ],
      "name": "ViewRequestHeader",
      "outputs": [
        {
          "internalType": "string",
          "name": "stuname",
          "type": "string"
        },
        {
          "internalType": "uint256",
          "name": "status",
          "type": "uint256"
        }
      ],
      "payable": false,
      "stateMutability": "view",
      "type": "function"
    }
  ],
  "bytecode": "0x608060405234801561001057600080fd5b506117b3806100206000396000f3fe608060405234801561001057600080fd5b506004361061007d5760003560e01c80634ed3885e1161005b5780634ed3885e146107c95780636d4ce63c14610884578063e183d77b14610907578063ff2bf64f1461095f5761007d565b80631f345f041461008257806325df4510146104f25780634ac32075146105c0575b600080fd5b6104f0600480360361012081101561009957600080fd5b81019080803573ffffffffffffffffffffffffffffffffffffffff169060200190929190803590602001906401000000008111156100d657600080fd5b8201836020820111156100e857600080fd5b8035906020019184600183028401116401000000008311171561010a57600080fd5b91908080601f016020809104026020016040519081016040528093929190818152602001838380828437600081840152601f19601f8201169050808301925050505050505091929192908035906020019064010000000081111561016d57600080fd5b82018360208201111561017f57600080fd5b803590602001918460018302840111640100000000831117156101a157600080fd5b91908080601f016020809104026020016040519081016040528093929190818152602001838380828437600081840152601f19601f8201169050808301925050505050505091929192908035906020019064010000000081111561020457600080fd5b82018360208201111561021657600080fd5b8035906020019184600183028401116401000000008311171561023857600080fd5b91908080601f016020809104026020016040519081016040528093929190818152602001838380828437600081840152601f19601f8201169050808301925050505050505091929192908035906020019064010000000081111561029b57600080fd5b8201836020820111156102ad57600080fd5b803590602001918460018302840111640100000000831117156102cf57600080fd5b91908080601f016020809104026020016040519081016040528093929190818152602001838380828437600081840152601f19601f8201169050808301925050505050505091929192908035906020019064010000000081111561033257600080fd5b82018360208201111561034457600080fd5b8035906020019184600183028401116401000000008311171561036657600080fd5b91908080601f016020809104026020016040519081016040528093929190818152602001838380828437600081840152601f19601f820116905080830192505050505050509192919290803590602001906401000000008111156103c957600080fd5b8201836020820111156103db57600080fd5b803590602001918460018302840111640100000000831117156103fd57600080fd5b91908080601f016020809104026020016040519081016040528093929190818152602001838380828437600081840152601f19601f8201169050808301925050505050505091929192908035906020019064010000000081111561046057600080fd5b82018360208201111561047257600080fd5b8035906020019184600183028401116401000000008311171561049457600080fd5b91908080601f016020809104026020016040519081016040528093929190818152602001838380828437600081840152601f19601f82011690508083019250505050505050919291929080359060200190929190505050610afe565b005b61053e6004803603604081101561050857600080fd5b81019080803573ffffffffffffffffffffffffffffffffffffffff16906020019092919080359060200190929190505050610c85565b6040518080602001838152602001828103825284818151815260200191508051906020019080838360005b83811015610584578082015181840152602081019050610569565b50505050905090810190601f1680156105b15780820380516001836020036101000a031916815260200191505b50935050505060405180910390f35b6107c7600480360360808110156105d657600080fd5b81019080803573ffffffffffffffffffffffffffffffffffffffff1690602001909291908035906020019064010000000081111561061357600080fd5b82018360208201111561062557600080fd5b8035906020019184600183028401116401000000008311171561064757600080fd5b91908080601f016020809104026020016040519081016040528093929190818152602001838380828437600081840152601f19601f820116905080830192505050505050509192919290803590602001906401000000008111156106aa57600080fd5b8201836020820111156106bc57600080fd5b803590602001918460018302840111640100000000831117156106de57600080fd5b91908080601f016020809104026020016040519081016040528093929190818152602001838380828437600081840152601f19601f8201169050808301925050505050505091929192908035906020019064010000000081111561074157600080fd5b82018360208201111561075357600080fd5b8035906020019184600183028401116401000000008311171561077557600080fd5b91908080601f016020809104026020016040519081016040528093929190818152602001838380828437600081840152601f19601f820116905080830192505050505050509192919290505050611188565b005b610882600480360360208110156107df57600080fd5b81019080803590602001906401000000008111156107fc57600080fd5b82018360208201111561080e57600080fd5b8035906020019184600183028401116401000000008311171561083057600080fd5b91908080601f016020809104026020016040519081016040528093929190818152602001838380828437600081840152601f19601f82011690508083019250505050505050919291929050505061126d565b005b61088c611287565b6040518080602001828103825283818151815260200191508051906020019080838360005b838110156108cc5780820151818401526020810190506108b1565b50505050905090810190601f1680156108f95780820380516001836020036101000a031916815260200191505b509250505060405180910390f35b6109496004803603602081101561091d57600080fd5b81019080803573ffffffffffffffffffffffffffffffffffffffff169060200190929190505050611329565b6040518082815260200191505060405180910390f35b6109ab6004803603604081101561097557600080fd5b81019080803573ffffffffffffffffffffffffffffffffffffffff16906020019092919080359060200190929190505050611375565b60405180806020018060200180602001848103845287818151815260200191508051906020019080838360005b838110156109f35780820151818401526020810190506109d8565b50505050905090810190601f168015610a205780820380516001836020036101000a031916815260200191505b50848103835286818151815260200191508051906020019080838360005b83811015610a59578082015181840152602081019050610a3e565b50505050905090810190601f168015610a865780820380516001836020036101000a031916815260200191505b50848103825285818151815260200191508051906020019080838360005b83811015610abf578082015181840152602081019050610aa4565b50505050905090810190601f168015610aec5780820380516001836020036101000a031916815260200191505b50965050505050505060405180910390f35b600260008a73ffffffffffffffffffffffffffffffffffffffff1673ffffffffffffffffffffffffffffffffffffffff1681526020019081526020016000206040518061010001604052808a815260200189815260200188815260200187815260200186815260200185815260200184815260200183815250908060018154018082558091505090600182039060005260206000209060080201600090919290919091506000820151816000019080519060200190610bbe9291906115f3565b506020820151816001019080519060200190610bdb9291906115f3565b506040820151816002019080519060200190610bf89291906115f3565b506060820151816003019080519060200190610c159291906115f3565b506080820151816004019080519060200190610c329291906115f3565b5060a0820151816005019080519060200190610c4f9291906115f3565b5060c0820151816006019080519060200190610c6c9291906115f3565b5060e08201518160070155505050505050505050505050565b60606000610c91611673565b600260008673ffffffffffffffffffffffffffffffffffffffff1673ffffffffffffffffffffffffffffffffffffffff1681526020019081526020016000208481548110610cdb57fe5b906000526020600020906008020160405180610100016040529081600082018054600181600116156101000203166002900480601f016020809104026020016040519081016040528092919081815260200182805460018160011615610100020316600290048015610d8e5780601f10610d6357610100808354040283529160200191610d8e565b820191906000526020600020905b815481529060010190602001808311610d7157829003601f168201915b50505050508152602001600182018054600181600116156101000203166002900480601f016020809104026020016040519081016040528092919081815260200182805460018160011615610100020316600290048015610e305780601f10610e0557610100808354040283529160200191610e30565b820191906000526020600020905b815481529060010190602001808311610e1357829003601f168201915b50505050508152602001600282018054600181600116156101000203166002900480601f016020809104026020016040519081016040528092919081815260200182805460018160011615610100020316600290048015610ed25780601f10610ea757610100808354040283529160200191610ed2565b820191906000526020600020905b815481529060010190602001808311610eb557829003601f168201915b50505050508152602001600382018054600181600116156101000203166002900480601f016020809104026020016040519081016040528092919081815260200182805460018160011615610100020316600290048015610f745780601f10610f4957610100808354040283529160200191610f74565b820191906000526020600020905b815481529060010190602001808311610f5757829003601f168201915b50505050508152602001600482018054600181600116156101000203166002900480601f0160208091040260200160405190810160405280929190818152602001828054600181600116156101000203166002900480156110165780601f10610feb57610100808354040283529160200191611016565b820191906000526020600020905b815481529060010190602001808311610ff957829003601f168201915b50505050508152602001600582018054600181600116156101000203166002900480601f0160208091040260200160405190810160405280929190818152602001828054600181600116156101000203166002900480156110b85780601f1061108d576101008083540402835291602001916110b8565b820191906000526020600020905b81548152906001019060200180831161109b57829003601f168201915b50505050508152602001600682018054600181600116156101000203166002900480601f01602080910402602001604051908101604052809291908181526020018280546001816001161561010002031660029004801561115a5780601f1061112f5761010080835404028352916020019161115a565b820191906000526020600020905b81548152906001019060200180831161113d57829003601f168201915b50505050508152602001600782015481525050905080600001518160e0015181915092509250509250929050565b600160008573ffffffffffffffffffffffffffffffffffffffff1673ffffffffffffffffffffffffffffffffffffffff1681526020019081526020016000206040518060600160405280858152602001848152602001838152509080600181540180825580915050906001820390600052602060002090600302016000909192909190915060008201518160000190805190602001906112299291906115f3565b5060208201518160010190805190602001906112469291906115f3565b5060408201518160020190805190602001906112639291906115f3565b5050505050505050565b80600090805190602001906112839291906116b8565b5050565b606060008054600181600116156101000203166002900480601f01602080910402602001604051908101604052809291908181526020018280546001816001161561010002031660029004801561131f5780601f106112f45761010080835404028352916020019161131f565b820191906000526020600020905b81548152906001019060200180831161130257829003601f168201915b5050505050905090565b6000600260008373ffffffffffffffffffffffffffffffffffffffff1673ffffffffffffffffffffffffffffffffffffffff168152602001908152602001600020805490509050919050565b6060806060611382611738565b600160008773ffffffffffffffffffffffffffffffffffffffff1673ffffffffffffffffffffffffffffffffffffffff16815260200190815260200160002085815481106113cc57fe5b9060005260206000209060030201604051806060016040529081600082018054600181600116156101000203166002900480601f01602080910402602001604051908101604052809291908181526020018280546001816001161561010002031660029004801561147e5780601f106114535761010080835404028352916020019161147e565b820191906000526020600020905b81548152906001019060200180831161146157829003601f168201915b50505050508152602001600182018054600181600116156101000203166002900480601f0160208091040260200160405190810160405280929190818152602001828054600181600116156101000203166002900480156115205780601f106114f557610100808354040283529160200191611520565b820191906000526020600020905b81548152906001019060200180831161150357829003601f168201915b50505050508152602001600282018054600181600116156101000203166002900480601f0160208091040260200160405190810160405280929190818152602001828054600181600116156101000203166002900480156115c25780601f10611597576101008083540402835291602001916115c2565b820191906000526020600020905b8154815290600101906020018083116115a557829003601f168201915b5050505050815250509050806000015181602001518260400151829250819150809050935093509350509250925092565b828054600181600116156101000203166002900490600052602060002090601f016020900481019282601f1061163457805160ff1916838001178555611662565b82800160010185558215611662579182015b82811115611661578251825591602001919060010190611646565b5b50905061166f9190611759565b5090565b60405180610100016040528060608152602001606081526020016060815260200160608152602001606081526020016060815260200160608152602001600081525090565b828054600181600116156101000203166002900490600052602060002090601f016020900481019282601f106116f957805160ff1916838001178555611727565b82800160010185558215611727579182015b8281111561172657825182559160200191906001019061170b565b5b5090506117349190611759565b5090565b60405180606001604052806060815260200160608152602001606081525090565b61177b91905b8082111561177757600081600090555060010161175f565b5090565b9056fea265627a7a72315820ce144756b9ba1c3e5724df179915d4f7f63f2212e97197b187c4cd50f3b1601e64736f6c63430005100032",
  "source": "pragma solidity >=0.4.22 <0.8.0;\r\n\r\n\r\ncontract Adddoc {\r\n     string memeHash;\r\n\r\n     struct UserInfo{\r\n\t\tstring FullName;\r\n\t\tstring EmailID;\r\n\t\tstring MobileNo;\r\n    }\r\n\r\n    struct Request{\r\n        string stuname;\r\n        string bonafide;\r\n        string book_bank;\r\n        string rector;\r\n        string scholor;\r\n        string academics;\r\n        string dochash;\r\n        uint256 status;\r\n    }\r\n\r\n    mapping(address => UserInfo[]) UserMap;\r\n    mapping(address => Request[]) RequestMap;\r\n\r\n\r\n\r\n    function set(string memory _memeHash) public {\r\n        memeHash = _memeHash;\r\n    }\r\n\r\n    function get() public view returns (string memory) {\r\n        return memeHash;\r\n    }\r\n\r\n\r\n    function AddUser(address UserAddress,string memory FullName,string memory EmailID,string memory MobileNo) public\r\n    {\r\n        UserMap[UserAddress].push(UserInfo(FullName,EmailID,MobileNo));\r\n    }\r\n    \r\n\r\n    function getUser(address ins,uint256 UserIndex) view public returns (string memory, string memory, string memory) {\r\n        UserInfo memory ThisUser=UserMap[ins][UserIndex];\r\n        return (ThisUser.FullName, ThisUser.EmailID, ThisUser.MobileNo);\r\n    }\r\n    \r\n    function AddRequest(address UserAddress,string memory stuname,string memory bonafide,string memory book_bank,string memory rector,string memory scholor,string memory academics,string memory dochash,uint status ) public\r\n    {\r\n        RequestMap[UserAddress].push(Request(stuname,bonafide,book_bank,rector,scholor,academics,dochash,status));\r\n    }\r\n    \r\n    function ViewRequestLength(address UserAddress) view public returns(uint)\r\n    {\r\n        return RequestMap[UserAddress].length;\r\n    }\r\n    \r\n    function ViewRequestHeader(address UserAddress, uint RequestIndex) view public returns(string memory stuname, uint status)\r\n    {\r\n        Request memory ThisRequest=RequestMap[UserAddress][RequestIndex];\r\n        return (ThisRequest.stuname, ThisRequest.status);\r\n    }\r\n   \r\n}\r\n                                                                                                                                ",
  "sourcePath": "D:/learnreact/src/contracts/Adddoc.sol",
  "compiler": {
    "name": "solc",
    "version": "0.5.16+commit.9c3226ce.Emscripten.clang"
  },
  "schemaVersion": "3.2.4",
  "updatedAt": "2020-10-15T03:31:00.053Z",
  "networkType": "ethereum",
  "devdoc": {
    "methods": {}
  },
  "userdoc": {
    "methods": {}
  }
}